{
  "_format": "hh-sol-artifact-1",
  "contractName": "Storage",
  "sourceName": "contracts/Storage.sol",
  "abi": [
    {
      "anonymous": false,
      "inputs": [
        {
          "indexed": false,
          "internalType": "uint256",
          "name": "oldValue",
          "type": "uint256"
        },
        {
          "indexed": false,
          "internalType": "uint256",
          "name": "newValue",
          "type": "uint256"
        }
      ],
      "name": "ValueChanged",
      "type": "event"
    },
    {
      "inputs": [],
      "name": "getValue",
      "outputs": [
        {
          "internalType": "uint256",
          "name": "",
          "type": "uint256"
        }
      ],
      "stateMutability": "view",
      "type": "function"
    },
    {
      "inputs": [
        {
          "internalType": "uint256",
          "name": "_value",
          "type": "uint256"
        }
      ],
      "name": "setValue",
      "outputs": [],
      "stateMutability": "nonpayable",
      "type": "function"
    }
  ],
  "bytecode": "0x608060405234801561001057600080fd5b506101b9806100206000396000f3fe608060405234801561001057600080fd5b50600436106100365760003560e01c8063209652551461003b5780635524107714610059575b600080fd5b610043610075565b60405161005091906100e1565b60405180910390f35b610073600480360381019061006e919061012d565b61007e565b005b60008054905090565b600080549050816000819055507f2db947ef788961acc438340dbcb4e242f80d026b621b7c98ee3061995039038281836040516100bc92919061015a565b60405180910390a15050565b6000819050919050565b6100db816100c8565b82525050565b60006020820190506100f660008301846100d2565b92915050565b600080fd5b61010a816100c8565b811461011557600080fd5b50565b60008135905061012781610101565b92915050565b600060208284031215610143576101426100fc565b5b600061015184828501610118565b91505092915050565b600060408201905061016f60008301856100d2565b61017c60208301846100d2565b939250505056fea2646970667358221220ff39e7326c2c74f82a441d2a8072470af105357e45e2022ba5a365a65238d4f464736f6c63430008130033",
  "linkReferences": {},
  "deployedLinkReferences": {}
}