{
  "_format": "hh-sol-artifact-1",
  "contractName": "GetterSetter",
  "sourceName": "contracts/GetterSetter.sol",
  "abi": [
    {
      "inputs": [],
      "name": "getValue",
      "outputs": [
        {
          "internalType": "uint256",
          "name": "",
          "type": "uint256"
        }
      ],
      "stateMutability": "view",
      "type": "function"
    },
    {
      "inputs": [
        {
          "internalType": "uint256",
          "name": "_value",
          "type": "uint256"
        }
      ],
      "name": "setValue",
      "outputs": [],
      "stateMutability": "nonpayable",
      "type": "function"
    }
  ],
  "bytecode": "0x608060405234801561001057600080fd5b50610150806100206000396000f3fe608060405234801561001057600080fd5b50600436106100365760003560e01c8063209652551461003b5780635524107714610059575b600080fd5b610043610075565b60405161005091906100a1565b60405180910390f35b610073600480360381019061006e91906100ed565b61007e565b005b60008054905090565b8060008190555050565b6000819050919050565b61009b81610088565b82525050565b60006020820190506100b66000830184610092565b92915050565b600080fd5b6100ca81610088565b81146100d557600080fd5b50565b6000813590506100e7816100c1565b92915050565b600060208284031215610103576101026100bc565b5b6000610111848285016100d8565b9150509291505056fea26469706673582212204776b633ff6f38d23c31e07d370363f684c92cc962875d6d755eaa12e38fc7df64736f6c63430008140033",
  "linkReferences": {},
  "deployedLinkReferences": {}
}